{
  "contractName": "Wallet",
  "abi": [
    {
      "inputs": [
        {
          "internalType": "address[]",
          "name": "_approvers",
          "type": "address[]"
        },
        {
          "internalType": "uint256",
          "name": "_quorum",
          "type": "uint256"
        }
      ],
      "stateMutability": "nonpayable",
      "type": "constructor"
    },
    {
      "inputs": [
        {
          "internalType": "address",
          "name": "",
          "type": "address"
        },
        {
          "internalType": "uint256",
          "name": "",
          "type": "uint256"
        }
      ],
      "name": "approvals",
      "outputs": [
        {
          "internalType": "bool",
          "name": "",
          "type": "bool"
        }
      ],
      "stateMutability": "view",
      "type": "function",
      "constant": true
    },
    {
      "inputs": [
        {
          "internalType": "uint256",
          "name": "",
          "type": "uint256"
        }
      ],
      "name": "approvers",
      "outputs": [
        {
          "internalType": "address",
          "name": "",
          "type": "address"
        }
      ],
      "stateMutability": "view",
      "type": "function",
      "constant": true
    },
    {
      "inputs": [],
      "name": "quorum",
      "outputs": [
        {
          "internalType": "uint256",
          "name": "",
          "type": "uint256"
        }
      ],
      "stateMutability": "view",
      "type": "function",
      "constant": true
    },
    {
      "inputs": [
        {
          "internalType": "uint256",
          "name": "",
          "type": "uint256"
        }
      ],
      "name": "transfers",
      "outputs": [
        {
          "internalType": "uint256",
          "name": "id",
          "type": "uint256"
        },
        {
          "internalType": "uint256",
          "name": "amount",
          "type": "uint256"
        },
        {
          "internalType": "address payable",
          "name": "to",
          "type": "address"
        },
        {
          "internalType": "uint256",
          "name": "approvals",
          "type": "uint256"
        },
        {
          "internalType": "bool",
          "name": "sent",
          "type": "bool"
        }
      ],
      "stateMutability": "view",
      "type": "function",
      "constant": true
    },
    {
      "stateMutability": "payable",
      "type": "receive",
      "payable": true
    },
    {
      "inputs": [],
      "name": "getApprovers",
      "outputs": [
        {
          "internalType": "address[]",
          "name": "",
          "type": "address[]"
        }
      ],
      "stateMutability": "view",
      "type": "function",
      "constant": true
    },
    {
      "inputs": [],
      "name": "getTransfers",
      "outputs": [
        {
          "components": [
            {
              "internalType": "uint256",
              "name": "id",
              "type": "uint256"
            },
            {
              "internalType": "uint256",
              "name": "amount",
              "type": "uint256"
            },
            {
              "internalType": "address payable",
              "name": "to",
              "type": "address"
            },
            {
              "internalType": "uint256",
              "name": "approvals",
              "type": "uint256"
            },
            {
              "internalType": "bool",
              "name": "sent",
              "type": "bool"
            }
          ],
          "internalType": "struct Wallet.Transfer[]",
          "name": "",
          "type": "tuple[]"
        }
      ],
      "stateMutability": "view",
      "type": "function",
      "constant": true
    },
    {
      "inputs": [
        {
          "internalType": "uint256",
          "name": "_amount",
          "type": "uint256"
        },
        {
          "internalType": "address payable",
          "name": "_to",
          "type": "address"
        }
      ],
      "name": "createTransfer",
      "outputs": [],
      "stateMutability": "nonpayable",
      "type": "function"
    },
    {
      "inputs": [
        {
          "internalType": "uint256",
          "name": "_transferId",
          "type": "uint256"
        }
      ],
      "name": "approveTransfer",
      "outputs": [],
      "stateMutability": "nonpayable",
      "type": "function"
    }
  ],
  "bytecode": "0x60806040523480156200001157600080fd5b5060405162001520380380620015208339818101604052810190620000379190620001dd565b81600090805190602001906200004f9291906200005f565b508060018190555050506200033b565b828054828255906000526020600020908101928215620000db579160200282015b82811115620000da5782518260006101000a81548173ffffffffffffffffffffffffffffffffffffffff021916908373ffffffffffffffffffffffffffffffffffffffff1602179055509160200191906001019062000080565b5b509050620000ea9190620000ee565b5090565b5b8082111562000109576000816000905550600101620000ef565b5090565b6000620001246200011e846200026b565b62000237565b905080838252602082019050828560208602820111156200014457600080fd5b60005b858110156200017857816200015d888262000182565b84526020840193506020830192505060018101905062000147565b5050509392505050565b600081519050620001938162000307565b92915050565b600082601f830112620001ab57600080fd5b8151620001bd8482602086016200010d565b91505092915050565b600081519050620001d78162000321565b92915050565b60008060408385031215620001f157600080fd5b600083015167ffffffffffffffff8111156200020c57600080fd5b6200021a8582860162000199565b92505060206200022d85828601620001c6565b9150509250929050565b6000604051905081810181811067ffffffffffffffff82111715620002615762000260620002d8565b5b8060405250919050565b600067ffffffffffffffff821115620002895762000288620002d8565b5b602082029050602081019050919050565b6000620002a782620002ae565b9050919050565b600073ffffffffffffffffffffffffffffffffffffffff82169050919050565b6000819050919050565b7f4e487b7100000000000000000000000000000000000000000000000000000000600052604160045260246000fd5b62000312816200029a565b81146200031e57600080fd5b50565b6200032c81620002ce565b81146200033857600080fd5b50565b6111d5806200034b6000396000f3fe60806040526004361061007f5760003560e01c80639377d7111161004e5780639377d71114610135578063cacca4a014610176578063d3650fb81461019f578063ffabc673146101dc57610086565b80631703a0181461008b5780632f65142c146100b65780634c12fa47146100e15780636cb3e8ef1461010a57610086565b3661008657005b600080fd5b34801561009757600080fd5b506100a0610219565b6040516100ad9190610f97565b60405180910390f35b3480156100c257600080fd5b506100cb61021f565b6040516100d89190610efa565b60405180910390f35b3480156100ed57600080fd5b5061010860048036038101906101039190610bf5565b61030d565b005b34801561011657600080fd5b5061011f61050c565b60405161012c9190610ed8565b60405180910390f35b34801561014157600080fd5b5061015c60048036038101906101579190610bcc565b61059a565b60405161016d959493929190610fb2565b60405180910390f35b34801561018257600080fd5b5061019d60048036038101906101989190610bcc565b61060d565b005b3480156101ab57600080fd5b506101c660048036038101906101c19190610bcc565b610ae3565b6040516101d39190610ebd565b60405180910390f35b3480156101e857600080fd5b5061020360048036038101906101fe9190610b90565b610b22565b6040516102109190610f1c565b60405180910390f35b60015481565b60606002805480602002602001604051908101604052809291908181526020016000905b8282101561030457838290600052602060002090600502016040518060a001604052908160008201548152602001600182015481526020016002820160009054906101000a900473ffffffffffffffffffffffffffffffffffffffff1673ffffffffffffffffffffffffffffffffffffffff1673ffffffffffffffffffffffffffffffffffffffff168152602001600382015481526020016004820160009054906101000a900460ff16151515158152505081526020019060010190610243565b50505050905090565b6000805b6000805490508110156103ce573373ffffffffffffffffffffffffffffffffffffffff166000828154811061036f577f4e487b7100000000000000000000000000000000000000000000000000000000600052603260045260246000fd5b9060005260206000200160009054906101000a900473ffffffffffffffffffffffffffffffffffffffff1673ffffffffffffffffffffffffffffffffffffffff1614156103bb57600191505b80806103c6906110e2565b915050610311565b508061040f576040517f08c379a000000000000000000000000000000000000000000000000000000000815260040161040690610f57565b60405180910390fd5b60026040518060a0016040528060028054905081526020018581526020018473ffffffffffffffffffffffffffffffffffffffff16815260200160008152602001600015158152509080600181540180825580915050600190039060005260206000209060050201600090919091909150600082015181600001556020820151816001015560408201518160020160006101000a81548173ffffffffffffffffffffffffffffffffffffffff021916908373ffffffffffffffffffffffffffffffffffffffff1602179055506060820151816003015560808201518160040160006101000a81548160ff0219169083151502179055505050505050565b6060600080548060200260200160405190810160405280929190818152602001828054801561059057602002820191906000526020600020905b8160009054906101000a900473ffffffffffffffffffffffffffffffffffffffff1673ffffffffffffffffffffffffffffffffffffffff1681526020019060010190808311610546575b5050505050905090565b600281815481106105aa57600080fd5b90600052602060002090600502016000915090508060000154908060010154908060020160009054906101000a900473ffffffffffffffffffffffffffffffffffffffff16908060030154908060040160009054906101000a900460ff16905085565b6000805b6000805490508110156106ce573373ffffffffffffffffffffffffffffffffffffffff166000828154811061066f577f4e487b7100000000000000000000000000000000000000000000000000000000600052603260045260246000fd5b9060005260206000200160009054906101000a900473ffffffffffffffffffffffffffffffffffffffff1673ffffffffffffffffffffffffffffffffffffffff1614156106bb57600191505b80806106c6906110e2565b915050610611565b508061070f576040517f08c379a000000000000000000000000000000000000000000000000000000000815260040161070690610f57565b60405180910390fd5b600015156002838154811061074d577f4e487b7100000000000000000000000000000000000000000000000000000000600052603260045260246000fd5b906000526020600020906005020160040160009054906101000a900460ff161515146107ae576040517f08c379a00000000000000000000000000000000000000000000000000000000081526004016107a590610f37565b60405180910390fd5b60001515600360003373ffffffffffffffffffffffffffffffffffffffff1673ffffffffffffffffffffffffffffffffffffffff168152602001908152602001600020600084815260200190815260200160002060009054906101000a900460ff16151514610852576040517f08c379a000000000000000000000000000000000000000000000000000000000815260040161084990610f77565b60405180910390fd5b6001600360003373ffffffffffffffffffffffffffffffffffffffff1673ffffffffffffffffffffffffffffffffffffffff168152602001908152602001600020600084815260200190815260200160002060006101000a81548160ff021916908315150217905550600282815481106108f5577f4e487b7100000000000000000000000000000000000000000000000000000000600052603260045260246000fd5b90600052602060002090600502016003016000815480929190610917906110e2565b919050555060015460028381548110610959577f4e487b7100000000000000000000000000000000000000000000000000000000600052603260045260246000fd5b9060005260206000209060050201600301541115610adf576001600283815481106109ad577f4e487b7100000000000000000000000000000000000000000000000000000000600052603260045260246000fd5b906000526020600020906005020160040160006101000a81548160ff021916908315150217905550600060028381548110610a11577f4e487b7100000000000000000000000000000000000000000000000000000000600052603260045260246000fd5b906000526020600020906005020160020160009054906101000a900473ffffffffffffffffffffffffffffffffffffffff169050600060028481548110610a81577f4e487b7100000000000000000000000000000000000000000000000000000000600052603260045260246000fd5b90600052602060002090600502016001015490508173ffffffffffffffffffffffffffffffffffffffff166108fc829081150290604051600060405180830381858888f19350505050158015610adb573d6000803e3d6000fd5b5050505b5050565b60008181548110610af357600080fd5b906000526020600020016000915054906101000a900473ffffffffffffffffffffffffffffffffffffffff1681565b60036020528160005260406000206020528060005260406000206000915091509054906101000a900460ff1681565b600081359050610b608161115a565b92915050565b600081359050610b7581611171565b92915050565b600081359050610b8a81611188565b92915050565b60008060408385031215610ba357600080fd5b6000610bb185828601610b51565b9250506020610bc285828601610b7b565b9150509250929050565b600060208284031215610bde57600080fd5b6000610bec84828501610b7b565b91505092915050565b60008060408385031215610c0857600080fd5b6000610c1685828601610b7b565b9250506020610c2785828601610b66565b9150509250929050565b6000610c3d8383610c7f565b60208301905092915050565b6000610c558383610e37565b60a08301905092915050565b610c6a8161109a565b82525050565b610c798161109a565b82525050565b610c8881611088565b82525050565b610c9781611088565b82525050565b6000610ca882611025565b610cb28185611055565b9350610cbd83611005565b8060005b83811015610cee578151610cd58882610c31565b9750610ce08361103b565b925050600181019050610cc1565b5085935050505092915050565b6000610d0682611030565b610d108185611066565b9350610d1b83611015565b8060005b83811015610d4c578151610d338882610c49565b9750610d3e83611048565b925050600181019050610d1f565b5085935050505092915050565b610d62816110ac565b82525050565b610d71816110ac565b82525050565b6000610d84601e83611077565b91507f7472616e736665722068617320616c7265616479206265656e2073656e7400006000830152602082019050919050565b6000610dc4601983611077565b91507f6f6e6c7920617070726f7665722063616e20617070726f7665000000000000006000830152602082019050919050565b6000610e04601d83611077565b91507f63616e6e6f7420617070726f7665207472616e736665722074776963650000006000830152602082019050919050565b60a082016000820151610e4d6000850182610e9f565b506020820151610e606020850182610e9f565b506040820151610e736040850182610c61565b506060820151610e866060850182610e9f565b506080820151610e996080850182610d59565b50505050565b610ea8816110d8565b82525050565b610eb7816110d8565b82525050565b6000602082019050610ed26000830184610c8e565b92915050565b60006020820190508181036000830152610ef28184610c9d565b905092915050565b60006020820190508181036000830152610f148184610cfb565b905092915050565b6000602082019050610f316000830184610d68565b92915050565b60006020820190508181036000830152610f5081610d77565b9050919050565b60006020820190508181036000830152610f7081610db7565b9050919050565b60006020820190508181036000830152610f9081610df7565b9050919050565b6000602082019050610fac6000830184610eae565b92915050565b600060a082019050610fc76000830188610eae565b610fd46020830187610eae565b610fe16040830186610c70565b610fee6060830185610eae565b610ffb6080830184610d68565b9695505050505050565b6000819050602082019050919050565b6000819050602082019050919050565b600081519050919050565b600081519050919050565b6000602082019050919050565b6000602082019050919050565b600082825260208201905092915050565b600082825260208201905092915050565b600082825260208201905092915050565b6000611093826110b8565b9050919050565b60006110a5826110b8565b9050919050565b60008115159050919050565b600073ffffffffffffffffffffffffffffffffffffffff82169050919050565b6000819050919050565b60006110ed826110d8565b91507fffffffffffffffffffffffffffffffffffffffffffffffffffffffffffffffff8214156111205761111f61112b565b5b600182019050919050565b7f4e487b7100000000000000000000000000000000000000000000000000000000600052601160045260246000fd5b61116381611088565b811461116e57600080fd5b50565b61117a8161109a565b811461118557600080fd5b50565b611191816110d8565b811461119c57600080fd5b5056fea2646970667358221220b453e116c72f147d3179dc313b4421c3d025a7bee896493d8208fcd145719c7264736f6c63430008000033",
  "immutableReferences": {},
  "source": "// SPDX-License-Identifier: MIT\npragma solidity ^0.8.0;\n\ncontract Wallet {\n    struct Transfer {\n        uint256 id;\n        uint256 amount;\n        address payable to;\n        uint256 approvals;\n        bool sent;\n    }\n\n    address[] public approvers;\n    uint256 public quorum;\n    Transfer[] public transfers;\n    mapping(address => mapping(uint256 => bool)) public approvals;\n\n    constructor(address[] memory _approvers, uint256 _quorum) {\n        approvers = _approvers;\n        quorum = _quorum;\n    }\n\n    function getApprovers() public view returns (address[] memory) {\n        return approvers;\n    }\n\n    function getTransfers() public view returns (Transfer[] memory) {\n        return transfers;\n    }\n\n    function createTransfer(uint256 _amount, address payable _to)\n        external\n        onlyApprover()\n    {\n        transfers.push(Transfer(transfers.length, _amount, _to, 0, false));\n    }\n\n    function approveTransfer(uint256 _transferId) external onlyApprover() {\n        require(\n            transfers[_transferId].sent == false,\n            'transfer has already been sent'\n        );\n        require(\n            approvals[msg.sender][_transferId] == false,\n            'cannot approve transfer twice'\n        );\n        approvals[msg.sender][_transferId] = true;\n        transfers[_transferId].approvals++;\n\n        if (transfers[_transferId].approvals > quorum) {\n            transfers[_transferId].sent = true;\n            address payable to = transfers[_transferId].to;\n            uint256 amount = transfers[_transferId].amount;\n            to.transfer(amount);\n        }\n    }\n\n    receive() external payable {}\n\n    modifier onlyApprover() {\n        bool allowed = false;\n        for (uint256 i = 0; i < approvers.length; i++) {\n            if (approvers[i] == msg.sender) {\n                allowed = true;\n            }\n        }\n        require(allowed, 'only approver can approve');\n        _;\n    }\n}\n",
  "sourcePath": "/Users/cris/Projects/blockchain/multi-sig-wallet/contracts/Wallet.sol",
  "compiler": {
    "name": "solc",
    "version": "0.8.0+commit.c7dfd78e.Emscripten.clang"
  },
  "schemaVersion": "3.4.1",
  "updatedAt": "2021-07-18T22:59:29.711Z",
  "networkType": "ethereum",
  "devdoc": {
    "kind": "dev",
    "methods": {},
    "version": 1
  },
  "userdoc": {
    "kind": "user",
    "methods": {},
    "version": 1
  }
}